{
  "contractName": "TransactionRegistry",
  "abi": [
    {
      "inputs": [
        {
          "internalType": "bytes32",
          "name": "",
          "type": "bytes32"
        }
      ],
      "name": "transactionIndices",
      "outputs": [
        {
          "internalType": "uint256",
          "name": "",
          "type": "uint256"
        }
      ],
      "stateMutability": "view",
      "type": "function",
      "constant": true
    },
    {
      "inputs": [
        {
          "internalType": "uint256",
          "name": "",
          "type": "uint256"
        }
      ],
      "name": "transactions",
      "outputs": [
        {
          "internalType": "string",
          "name": "action",
          "type": "string"
        },
        {
          "internalType": "uint256",
          "name": "duration",
          "type": "uint256"
        },
        {
          "internalType": "uint256",
          "name": "borrower_id",
          "type": "uint256"
        },
        {
          "internalType": "uint256",
          "name": "item_id",
          "type": "uint256"
        },
        {
          "internalType": "uint256",
          "name": "room_id",
          "type": "uint256"
        },
        {
          "internalType": "uint256",
          "name": "created_at",
          "type": "uint256"
        },
        {
          "internalType": "bytes32",
          "name": "transact_hash",
          "type": "bytes32"
        }
      ],
      "stateMutability": "view",
      "type": "function",
      "constant": true
    },
    {
      "inputs": [
        {
          "internalType": "string",
          "name": "_action",
          "type": "string"
        },
        {
          "internalType": "uint256",
          "name": "_duration",
          "type": "uint256"
        },
        {
          "internalType": "uint256",
          "name": "_borrower_id",
          "type": "uint256"
        },
        {
          "internalType": "uint256",
          "name": "_item_id",
          "type": "uint256"
        },
        {
          "internalType": "uint256",
          "name": "_room_id",
          "type": "uint256"
        },
        {
          "internalType": "uint256",
          "name": "_created_at",
          "type": "uint256"
        },
        {
          "internalType": "bytes32",
          "name": "_transact_hash",
          "type": "bytes32"
        }
      ],
      "name": "storeTransaction",
      "outputs": [],
      "stateMutability": "nonpayable",
      "type": "function"
    },
    {
      "inputs": [
        {
          "internalType": "bytes32",
          "name": "_transact_hash",
          "type": "bytes32"
        }
      ],
      "name": "getTransactionByHash",
      "outputs": [
        {
          "internalType": "string",
          "name": "",
          "type": "string"
        },
        {
          "internalType": "uint256",
          "name": "",
          "type": "uint256"
        },
        {
          "internalType": "uint256",
          "name": "",
          "type": "uint256"
        },
        {
          "internalType": "uint256",
          "name": "",
          "type": "uint256"
        },
        {
          "internalType": "uint256",
          "name": "",
          "type": "uint256"
        },
        {
          "internalType": "uint256",
          "name": "",
          "type": "uint256"
        },
        {
          "internalType": "bytes32",
          "name": "",
          "type": "bytes32"
        }
      ],
      "stateMutability": "view",
      "type": "function",
      "constant": true
    }
  ],
  "bytecode": "0x608060405234801561000f575f80fd5b50610bf38061001d5f395ff3fe608060405234801561000f575f80fd5b506004361061004a575f3560e01c80639ace38c21461004e578063aed4749b14610084578063b73bd890146100a0578063ee3d7ad3146100d0575b5f80fd5b6100686004803603810190610063919061045c565b610106565b60405161007b9796959493929190610538565b60405180910390f35b61009e60048036038101906100999190610702565b6101d8565b005b6100ba60048036038101906100b591906107bb565b6102b8565b6040516100c791906107e6565b60405180910390f35b6100ea60048036038101906100e591906107bb565b6102cd565b6040516100fd9796959493929190610538565b60405180910390f35b5f8181548110610114575f80fd5b905f5260205f2090600702015f91509050805f0180546101339061082c565b80601f016020809104026020016040519081016040528092919081815260200182805461015f9061082c565b80156101aa5780601f10610181576101008083540402835291602001916101aa565b820191905f5260205f20905b81548152906001019060200180831161018d57829003601f168201915b5050505050908060010154908060020154908060030154908060040154908060050154908060060154905087565b5f6040518060e001604052808981526020018881526020018781526020018681526020018581526020018481526020018381525090505f81908060018154018082558091505060019003905f5260205f2090600702015f909190919091505f820151815f01908161024991906109f9565b506020820151816001015560408201518160020155606082015181600301556080820151816004015560a0820151816005015560c08201518160060155505060015f805490506102999190610af5565b60015f8481526020019081526020015f20819055505050505050505050565b6001602052805f5260405f205f915090505481565b60605f805f805f805f60015f8a81526020019081526020015f205490505f805490508110610330576040517f08c379a000000000000000000000000000000000000000000000000000000000815260040161032790610b72565b60405180910390fd5b5f80828154811061034457610343610b90565b5b905f5260205f2090600702019050805f0181600101548260020154836003015484600401548560050154866006015486805461037f9061082c565b80601f01602080910402602001604051908101604052809291908181526020018280546103ab9061082c565b80156103f65780601f106103cd576101008083540402835291602001916103f6565b820191905f5260205f20905b8154815290600101906020018083116103d957829003601f168201915b5050505050965098509850985098509850985098505050919395979092949650565b5f604051905090565b5f80fd5b5f80fd5b5f819050919050565b61043b81610429565b8114610445575f80fd5b50565b5f8135905061045681610432565b92915050565b5f6020828403121561047157610470610421565b5b5f61047e84828501610448565b91505092915050565b5f81519050919050565b5f82825260208201905092915050565b5f5b838110156104be5780820151818401526020810190506104a3565b5f8484015250505050565b5f601f19601f8301169050919050565b5f6104e382610487565b6104ed8185610491565b93506104fd8185602086016104a1565b610506816104c9565b840191505092915050565b61051a81610429565b82525050565b5f819050919050565b61053281610520565b82525050565b5f60e0820190508181035f830152610550818a6104d9565b905061055f6020830189610511565b61056c6040830188610511565b6105796060830187610511565b6105866080830186610511565b61059360a0830185610511565b6105a060c0830184610529565b98975050505050505050565b5f80fd5b5f80fd5b7f4e487b71000000000000000000000000000000000000000000000000000000005f52604160045260245ffd5b6105ea826104c9565b810181811067ffffffffffffffff82111715610609576106086105b4565b5b80604052505050565b5f61061b610418565b905061062782826105e1565b919050565b5f67ffffffffffffffff821115610646576106456105b4565b5b61064f826104c9565b9050602081019050919050565b828183375f83830152505050565b5f61067c6106778461062c565b610612565b905082815260208101848484011115610698576106976105b0565b5b6106a384828561065c565b509392505050565b5f82601f8301126106bf576106be6105ac565b5b81356106cf84826020860161066a565b91505092915050565b6106e181610520565b81146106eb575f80fd5b50565b5f813590506106fc816106d8565b92915050565b5f805f805f805f60e0888a03121561071d5761071c610421565b5b5f88013567ffffffffffffffff81111561073a57610739610425565b5b6107468a828b016106ab565b97505060206107578a828b01610448565b96505060406107688a828b01610448565b95505060606107798a828b01610448565b945050608061078a8a828b01610448565b93505060a061079b8a828b01610448565b92505060c06107ac8a828b016106ee565b91505092959891949750929550565b5f602082840312156107d0576107cf610421565b5b5f6107dd848285016106ee565b91505092915050565b5f6020820190506107f95f830184610511565b92915050565b7f4e487b71000000000000000000000000000000000000000000000000000000005f52602260045260245ffd5b5f600282049050600182168061084357607f821691505b602082108103610856576108556107ff565b5b50919050565b5f819050815f5260205f209050919050565b5f6020601f8301049050919050565b5f82821b905092915050565b5f600883026108b87fffffffffffffffffffffffffffffffffffffffffffffffffffffffffffffffff8261087d565b6108c2868361087d565b95508019841693508086168417925050509392505050565b5f819050919050565b5f6108fd6108f86108f384610429565b6108da565b610429565b9050919050565b5f819050919050565b610916836108e3565b61092a61092282610904565b848454610889565b825550505050565b5f90565b61093e610932565b61094981848461090d565b505050565b5b8181101561096c576109615f82610936565b60018101905061094f565b5050565b601f8211156109b1576109828161085c565b61098b8461086e565b8101602085101561099a578190505b6109ae6109a68561086e565b83018261094e565b50505b505050565b5f82821c905092915050565b5f6109d15f19846008026109b6565b1980831691505092915050565b5f6109e983836109c2565b9150826002028217905092915050565b610a0282610487565b67ffffffffffffffff811115610a1b57610a1a6105b4565b5b610a25825461082c565b610a30828285610970565b5f60209050601f831160018114610a61575f8415610a4f578287015190505b610a5985826109de565b865550610ac0565b601f198416610a6f8661085c565b5f5b82811015610a9657848901518255600182019150602085019450602081019050610a71565b86831015610ab35784890151610aaf601f8916826109c2565b8355505b6001600288020188555050505b505050505050565b7f4e487b71000000000000000000000000000000000000000000000000000000005f52601160045260245ffd5b5f610aff82610429565b9150610b0a83610429565b9250828203905081811115610b2257610b21610ac8565b5b92915050565b7f5472616e73616374696f6e206e6f7420666f756e6400000000000000000000005f82015250565b5f610b5c601583610491565b9150610b6782610b28565b602082019050919050565b5f6020820190508181035f830152610b8981610b50565b9050919050565b7f4e487b71000000000000000000000000000000000000000000000000000000005f52603260045260245ffdfea2646970667358221220fc04cdff39e4a3183d4037526678a1dc505e5da3f3879c97e8a10a0a723c9b3664736f6c63430008140033",
  "immutableReferences": {},
  "source": "// SPDX-License-Identifier: MIT\npragma solidity >=0.4.22 <0.9.0;\n\ncontract TransactionRegistry {\n    struct Transaction {\n        string action;\n        uint256 duration;\n        uint256 borrower_id;\n        uint256 item_id;\n        uint256 room_id;\n        uint256 created_at;\n        bytes32 transact_hash;\n    }\n\n    Transaction[] public transactions;\n    mapping(bytes32 => uint256) public transactionIndices;\n\n    function storeTransaction(\n        string memory _action,\n        uint256 _duration,\n        uint256 _borrower_id,\n        uint256 _item_id,\n        uint256 _room_id,\n        uint256 _created_at,\n        bytes32 _transact_hash\n    ) public {\n        Transaction memory newTransaction = Transaction(\n            _action,\n            _duration,\n            _borrower_id,\n            _item_id,\n            _room_id,\n            _created_at,\n            _transact_hash\n        );\n\n        transactions.push(newTransaction);\n        transactionIndices[_transact_hash] = transactions.length - 1;\n    }\n\n    function getTransactionByHash(bytes32 _transact_hash) public view returns (\n        string memory,\n        uint256,\n        uint256,\n        uint256,\n        uint256,\n        uint256,\n        bytes32\n    ) {\n        uint256 index = transactionIndices[_transact_hash];\n        require(index < transactions.length, \"Transaction not found\");\n\n        Transaction storage transaction = transactions[index];\n        return (\n            transaction.action,\n            transaction.duration,\n            transaction.borrower_id,\n            transaction.item_id,\n            transaction.room_id,\n            transaction.created_at,\n            transaction.transact_hash\n        );\n    }\n}\n",
  "sourcePath": "/Users/vicevirus/Documents/dAppBorrowingSystem/truffle/contracts/TransactionRegistry.sol",
  "compiler": {
    "name": "solc",
    "version": "0.8.20+commit.a1b79de6.Emscripten.clang"
  },
  "schemaVersion": "3.4.14",
  "updatedAt": "2023-06-04T14:21:42.040Z",
  "networkType": "ethereum",
  "devdoc": {
    "kind": "dev",
    "methods": {},
    "version": 1
  },
  "userdoc": {
    "kind": "user",
    "methods": {},
    "version": 1
  }
}