{
  "contractName": "TransactionRegistry",
  "abi": [
    {
      "inputs": [
        {
          "internalType": "string",
          "name": "",
          "type": "string"
        }
      ],
      "name": "transactions",
      "outputs": [
        {
          "internalType": "string",
          "name": "action",
          "type": "string"
        },
        {
          "internalType": "uint256",
          "name": "duration",
          "type": "uint256"
        },
        {
          "internalType": "uint256",
          "name": "borrower_id",
          "type": "uint256"
        },
        {
          "internalType": "uint256",
          "name": "item_id",
          "type": "uint256"
        },
        {
          "internalType": "uint256",
          "name": "room_id",
          "type": "uint256"
        },
        {
          "internalType": "uint256",
          "name": "created_at",
          "type": "uint256"
        },
        {
          "internalType": "string",
          "name": "transact_hash",
          "type": "string"
        }
      ],
      "stateMutability": "view",
      "type": "function",
      "constant": true
    },
    {
      "inputs": [
        {
          "internalType": "string",
          "name": "_action",
          "type": "string"
        },
        {
          "internalType": "uint256",
          "name": "_duration",
          "type": "uint256"
        },
        {
          "internalType": "uint256",
          "name": "_borrower_id",
          "type": "uint256"
        },
        {
          "internalType": "uint256",
          "name": "_item_id",
          "type": "uint256"
        },
        {
          "internalType": "uint256",
          "name": "_room_id",
          "type": "uint256"
        },
        {
          "internalType": "uint256",
          "name": "_created_at",
          "type": "uint256"
        },
        {
          "internalType": "string",
          "name": "_transact_hash",
          "type": "string"
        }
      ],
      "name": "storeTransaction",
      "outputs": [],
      "stateMutability": "nonpayable",
      "type": "function"
    },
    {
      "inputs": [
        {
          "internalType": "string",
          "name": "_transact_hash",
          "type": "string"
        }
      ],
      "name": "getTransactionByHash",
      "outputs": [
        {
          "internalType": "string",
          "name": "",
          "type": "string"
        },
        {
          "internalType": "uint256",
          "name": "",
          "type": "uint256"
        },
        {
          "internalType": "uint256",
          "name": "",
          "type": "uint256"
        },
        {
          "internalType": "uint256",
          "name": "",
          "type": "uint256"
        },
        {
          "internalType": "uint256",
          "name": "",
          "type": "uint256"
        },
        {
          "internalType": "uint256",
          "name": "",
          "type": "uint256"
        },
        {
          "internalType": "string",
          "name": "",
          "type": "string"
        }
      ],
      "stateMutability": "view",
      "type": "function",
      "constant": true
    }
  ],
  "bytecode": "0x608060405234801561000f575f80fd5b50610cd38061001d5f395ff3fe608060405234801561000f575f80fd5b506004361061003f575f3560e01c8063022236f414610043578063078a5d5e14610079578063f2b90654146100af575b5f80fd5b61005d60048036038101906100589190610661565b6100cb565b604051610070979695949392919061073a565b60405180910390f35b610093600480360381019061008e9190610661565b61022c565b6040516100a6979695949392919061073a565b60405180910390f35b6100c960048036038101906100c491906107df565b6103f5565b005b5f818051602081018201805184825260208301602085012081835280955050505050505f91509050805f018054610101906108e1565b80601f016020809104026020016040519081016040528092919081815260200182805461012d906108e1565b80156101785780601f1061014f57610100808354040283529160200191610178565b820191905f5260205f20905b81548152906001019060200180831161015b57829003601f168201915b5050505050908060010154908060020154908060030154908060040154908060050154908060060180546101ab906108e1565b80601f01602080910402602001604051908101604052809291908181526020018280546101d7906108e1565b80156102225780601f106101f957610100808354040283529160200191610222565b820191905f5260205f20905b81548152906001019060200180831161020557829003601f168201915b5050505050905087565b60605f805f805f60605f8089604051610245919061094b565b908152602001604051809103902090505f816006018054610265906108e1565b9050036102a7576040517f08c379a000000000000000000000000000000000000000000000000000000000815260040161029e906109ab565b60405180910390fd5b805f0181600101548260020154836003015484600401548560050154866006018680546102d3906108e1565b80601f01602080910402602001604051908101604052809291908181526020018280546102ff906108e1565b801561034a5780601f106103215761010080835404028352916020019161034a565b820191905f5260205f20905b81548152906001019060200180831161032d57829003601f168201915b5050505050965080805461035d906108e1565b80601f0160208091040260200160405190810160405280929190818152602001828054610389906108e1565b80156103d45780601f106103ab576101008083540402835291602001916103d4565b820191905f5260205f20905b8154815290600101906020018083116103b757829003601f168201915b50505050509050975097509750975097509750975050919395979092949650565b5f8082604051610405919061094b565b90815260200160405180910390206005015414610457576040517f08c379a000000000000000000000000000000000000000000000000000000000815260040161044e90610a13565b60405180910390fd5b5f6040518060e00160405280898152602001888152602001878152602001868152602001858152602001848152602001838152509050805f8360405161049d919061094b565b90815260200160405180910390205f820151815f0190816104be9190610bce565b506020820151816001015560408201518160020155606082015181600301556080820151816004015560a0820151816005015560c08201518160060190816105069190610bce565b509050505050505050505050565b5f604051905090565b5f80fd5b5f80fd5b5f80fd5b5f80fd5b5f601f19601f8301169050919050565b7f4e487b71000000000000000000000000000000000000000000000000000000005f52604160045260245ffd5b6105738261052d565b810181811067ffffffffffffffff821117156105925761059161053d565b5b80604052505050565b5f6105a4610514565b90506105b0828261056a565b919050565b5f67ffffffffffffffff8211156105cf576105ce61053d565b5b6105d88261052d565b9050602081019050919050565b828183375f83830152505050565b5f610605610600846105b5565b61059b565b90508281526020810184848401111561062157610620610529565b5b61062c8482856105e5565b509392505050565b5f82601f83011261064857610647610525565b5b81356106588482602086016105f3565b91505092915050565b5f602082840312156106765761067561051d565b5b5f82013567ffffffffffffffff81111561069357610692610521565b5b61069f84828501610634565b91505092915050565b5f81519050919050565b5f82825260208201905092915050565b5f5b838110156106df5780820151818401526020810190506106c4565b5f8484015250505050565b5f6106f4826106a8565b6106fe81856106b2565b935061070e8185602086016106c2565b6107178161052d565b840191505092915050565b5f819050919050565b61073481610722565b82525050565b5f60e0820190508181035f830152610752818a6106ea565b9050610761602083018961072b565b61076e604083018861072b565b61077b606083018761072b565b610788608083018661072b565b61079560a083018561072b565b81810360c08301526107a781846106ea565b905098975050505050505050565b6107be81610722565b81146107c8575f80fd5b50565b5f813590506107d9816107b5565b92915050565b5f805f805f805f60e0888a0312156107fa576107f961051d565b5b5f88013567ffffffffffffffff81111561081757610816610521565b5b6108238a828b01610634565b97505060206108348a828b016107cb565b96505060406108458a828b016107cb565b95505060606108568a828b016107cb565b94505060806108678a828b016107cb565b93505060a06108788a828b016107cb565b92505060c088013567ffffffffffffffff81111561089957610898610521565b5b6108a58a828b01610634565b91505092959891949750929550565b7f4e487b71000000000000000000000000000000000000000000000000000000005f52602260045260245ffd5b5f60028204905060018216806108f857607f821691505b60208210810361090b5761090a6108b4565b5b50919050565b5f81905092915050565b5f610925826106a8565b61092f8185610911565b935061093f8185602086016106c2565b80840191505092915050565b5f610956828461091b565b915081905092915050565b7f5472616e73616374696f6e206e6f7420666f756e6400000000000000000000005f82015250565b5f6109956015836106b2565b91506109a082610961565b602082019050919050565b5f6020820190508181035f8301526109c281610989565b9050919050565b7f5472616e73616374696f6e20616c7265616479206578697374730000000000005f82015250565b5f6109fd601a836106b2565b9150610a08826109c9565b602082019050919050565b5f6020820190508181035f830152610a2a816109f1565b9050919050565b5f819050815f5260205f209050919050565b5f6020601f8301049050919050565b5f82821b905092915050565b5f60088302610a8d7fffffffffffffffffffffffffffffffffffffffffffffffffffffffffffffffff82610a52565b610a978683610a52565b95508019841693508086168417925050509392505050565b5f819050919050565b5f610ad2610acd610ac884610722565b610aaf565b610722565b9050919050565b5f819050919050565b610aeb83610ab8565b610aff610af782610ad9565b848454610a5e565b825550505050565b5f90565b610b13610b07565b610b1e818484610ae2565b505050565b5b81811015610b4157610b365f82610b0b565b600181019050610b24565b5050565b601f821115610b8657610b5781610a31565b610b6084610a43565b81016020851015610b6f578190505b610b83610b7b85610a43565b830182610b23565b50505b505050565b5f82821c905092915050565b5f610ba65f1984600802610b8b565b1980831691505092915050565b5f610bbe8383610b97565b9150826002028217905092915050565b610bd7826106a8565b67ffffffffffffffff811115610bf057610bef61053d565b5b610bfa82546108e1565b610c05828285610b45565b5f60209050601f831160018114610c36575f8415610c24578287015190505b610c2e8582610bb3565b865550610c95565b601f198416610c4486610a31565b5f5b82811015610c6b57848901518255600182019150602085019450602081019050610c46565b86831015610c885784890151610c84601f891682610b97565b8355505b6001600288020188555050505b50505050505056fea2646970667358221220141896b76d63c0af8a3b251526e8b45d0776e558f0247428f3bff5b2913f4bed64736f6c63430008140033",
  "immutableReferences": {},
  "source": "pragma solidity >=0.4.22 <0.9.0;\n\ncontract TransactionRegistry {\n    struct Transaction {\n        string action;\n        uint256 duration;\n        uint256 borrower_id;\n        uint256 item_id;\n        uint256 room_id;\n        uint256 created_at;\n        string transact_hash;\n    }\n\n    mapping(string => Transaction) public transactions;\n    \n    function storeTransaction(\n        string memory _action,\n        uint256 _duration,\n        uint256 _borrower_id,\n        uint256 _item_id,\n        uint256 _room_id,\n        uint256 _created_at,\n        string memory _transact_hash\n    ) public {\n        require(transactions[_transact_hash].created_at == 0, \"Transaction already exists\");\n        \n        Transaction memory newTransaction = Transaction(\n            _action,\n            _duration,\n            _borrower_id,\n            _item_id,\n            _room_id,\n            _created_at,\n            _transact_hash\n        );\n\n        transactions[_transact_hash] = newTransaction;\n    }\n\n    function getTransactionByHash(string memory _transact_hash) public view returns (\n        string memory,\n        uint256,\n        uint256,\n        uint256,\n        uint256,\n        uint256,\n        string memory\n    ) {\n        Transaction storage transaction = transactions[_transact_hash];\n        require(bytes(transaction.transact_hash).length != 0, \"Transaction not found\");\n\n        return (\n            transaction.action,\n            transaction.duration,\n            transaction.borrower_id,\n            transaction.item_id,\n            transaction.room_id,\n            transaction.created_at,\n            transaction.transact_hash\n        );\n    }\n}\n",
  "sourcePath": "/Users/vicevirus/Documents/dAppBorrowingSystem/truffle/contracts/TransactionRegistry.sol",
  "compiler": {
    "name": "solc",
    "version": "0.8.20+commit.a1b79de6.Emscripten.clang"
  },
  "schemaVersion": "3.4.14",
  "updatedAt": "2023-06-05T19:57:25.917Z",
  "networkType": "ethereum",
  "devdoc": {
    "kind": "dev",
    "methods": {},
    "version": 1
  },
  "userdoc": {
    "kind": "user",
    "methods": {},
    "version": 1
  }
}